:020000040000fa
:080000000001040000000000f3
:020000040000fa
:100200008f8420000e7922000e018800000000007b
:100210000c000700a05c2000010020001100070076
:10022000000020000000e000020032000000020098
:1002300000000000cc030200000000000040da00d3
:100240000000fe004440a900000020000000e00083
:100250000300320000002000a00188004440a800f4
:100260000000060091018800800078000000eb008b
:1002700015003700e280400032a0b4009101ba00be
:10028000e280400032a0b4009102ba00e280400057
:1002900032a0b4000002eb00472bde00f507b200ed
:1002a000602ce10004003a000059eb008301e900f2
:1002b000fdff3e00040037006128e100010032002c
:1002c0000082eb00040007001101ba000200e00008
:1002d000e8ff3a00000006003159ba008301e90046
:1002e0000c0032002159ba008301e90008003200f5
:1002f0000400e00003003a00e280400032a0b400b5
:10030000f5ff370011d9ba008301e900faff3a007e
:100310008100e800e180400032a0b4000000060047
:10032000ff3ffc00274180000700780071408000fb
:100330000002020000000000304188000900200097
:100340000700780061408000000202000000000009
:1003500000805400404188000000fc0000000600be
:1003600030158800a022a800a002ae00feff3700d2
:10037000a002aa00001480004100de000000060078
:10038000ff3ffc0030302000b00102000000000000
:100390008003780020202000b0010200000000004f
:1003a00000047800d54180000538e10003003c00de
:1003b0000540e10001003c00010037008980a800f1
:1003c0000000fc0000000600ff3ffc003041800000
:1003d00071408000000202000000000080047800ec
:1003e00040418000614080000002020000000000e7
:1003f00080835400274188000000fc0000000600b4
:1004000000027800810278001301c0004100c8009a
:10041000f60020000600c800100180000000060061
:10042000ff3ffc00010050009e020200000000009f
:1004300000027800820278001301c0004100c80069
:1004400058020200000000009e02020000000000ae
:100450000004780059408000090042009e0202001a
:1004600000000000000278005040880083027800fd
:100470001301c0004100c800580202000000000043
:100480009e02020000000000800478000900440081
:100490001a4080002b4080000a80e6000a007800a5
:1004a0000b00e6000b0078004380de002e003700d2
:1004b0004220ef0060026a000a0033002a01800037
:1004c0000a00e00018003a001a0180000a00e0006b
:1004d00018003200020009004555de0012003a0003
:1004e000140037002a018000fbff2f000a00e00003
:1004f00001003a000f0037000b50e10007003a00fe
:100500001a0180000a00e0000a003200020009001f
:100510004555de0001003200060037001a022800af
:100520001a01880003003700fafd27001a0188002d
:10053000000037001001800000000600fafd2300d3
:100540001b022c000a00e10003003d000b00e1004b
:1005500003003400030037000a0078000100370070
:100560000b007800000006000000fc000000060000
:10057000ff3ffc00354080008041800005004000c6
:10058000c802020000000000b00e8800040037001e
:100590000000e00001003c00000020000000060018
:1005a0000000fc00000006000600fa00200798008a
:1005b0000000eb00000f78000c0037000000eb009b
:1005c00010079800040037000060fe001e00900035
:1005d0000000e800100798009e009000e0822600ce
:1005e000808f5000f8ff36001e0fe8002e009000ac
:1005f0009e0f1000f1ff39000080fa000000060095
:100600000000fa00e402a900e422a900e442a900e3
:10061000e462a900e4c2a900011c20009140780016
:10062000c0cfb30000c060000014a000c0e1b7005c
:10063000210e80000000280000806000116f200063
:1006400001007000200e8800c801a900c821a9007f
:10065000c841a900c881a900c8a1a900c8c1a900b2
:10066000ca41a900ccc1bf00f043b20001c8b30029
:1006700001407000cce1b700c11c2000914078001f
:1006800000ccb30000c06000a040b300cce1b700d4
:10069000d201a900d221a900d241a900b0102000a6
:1006a0001008880005e1a900505320006008880068
:1006b00011e1a900c08a20007008880013e1a90098
:1006c00040032d00d00888001fe1a90030de200083
:1006d000e008880021e1a900012a2000914078006b
:1006e00000ceb30000c07000a0e2b700a062a90075
:1006f000112a200091407800c0cfb30000c06000f4
:100700000014a000a1e2b7000000eb001015880063
:10071000512a20009140780000ceb30000c0600054
:100720000014a000a5e2b700412a20009140780003
:1007300000ccb30000c060005040b300a4e2b7009a
:1007400030012800401588000000eb00501588009b
:10075000a1e2a80081e0a900aac0bf007040b300d8
:10076000aae0b7009180a8008c60a8008cc0a90006
:100770005109200091407800f0c8b30000c060002b
:1007800001c6b3000140700095e0b70090e0a900f9
:100790000080fa00000006000000fa0098ff070041
:1007a000ac00070084c0bf000044b2000004e000b9
:1007b0002300320020428000304188003042800017
:1007c0004041880000ff0700ff3ffc008000200040
:1007d000e3fe0700800078000040800000805000a9
:1007e000704188000000fc0071418000e041800001
:1007f000808f5000010034008980a9007141800081
:10080000f0418000808f500001003d008980a900e8
:10081000804180005040880060418000524180004b
:10082000714180002441800080017800040078003c
:10083000fbfe0700804188004dff070084c0a9002f
:1008400084c0bf0001c8b300014060000004e000a4
:1008500035003200ff3ffc00914180006040800085
:10086000e7fe0700204188000000fc00acfe070006
:1008700030418000a041880040418000b0418800a4
:10088000ff3ffc0050002000b5fe0700800078000c
:100890000040800000805000204188000000fc00e3
:1008a0009ffe07000041800050408800f04080001b
:1008b000e240800031418000a44180008001780046
:1008c00004007800d6fe0700004188001041800037
:1008d00050408800f0408000e240800041418000ac
:1008e000b44180008001780004007800ccfe07004d
:1008f00010418800204280000042880011428000a0
:10090000004180008b0007002042880030428000b8
:1009100000428800114280001041800085000700dd
:100920003042880084e0a90086c0bf000042b200c7
:100930000004e0000d00320091fe07007007200067
:10094000400e8800904180000000e800904188003f
:1009500091418000c0418000808f5000020035002e
:10096000c04180009041880086a0a9000060fe0080
:100970008cff370000a0fe003600f800849fbe0008
:10098000869fbe000000fa0086c0bf000044b2008f
:100990000004e0001b00320090408000804088008e
:1009a000804080006101b900a0408000b14080001b
:1009b0000200400083804800a0408800b1408800c9
:1009c000a2408000b3408000c0408000d140800041
:1009d000800f5100818f5900080035000000eb00a6
:1009e0006040880080eb2700704088006000b800fd
:1009f000a0408800b1408800010037005500070082
:100a000086c0a9008460a9000080fa004f03be00e0
:100a10004f02be003600f9000080fe0000400600d4
:100a2000801f78000000fa00c1e1a9000000eb007f
:100a3000400e8800e622a900e642a900e662a9006d
:100a4000e6c2a9008980a9000080fa004f00780062
:100a5000004006000000fa00200e800030408800b0
:100a6000200e80000000ea004040880030408000f6
:100a70004300dd00104088003140800080ff2f00df
:100a80000088b900204088000000eb00400e88007c
:100a9000c1e1a90010002000900e8800e0012000b4
:100aa000c1fe0700a1e2a800e602a800f0002000b5
:100ab000bdfe0700e0e0200029fe0700004088009e
:100ac000e602a900e0012000b7fe0700e622a80028
:100ad000e0012000b4fe070030408000b00e880026
:100ae00030408000c00e880030408000d00e88006a
:100af000e642a80040012000abfe0700e662a80025
:100b000040012000a8fe0700e6c2a800e001200086
:100b1000a5fe0700c1e1a80005e1a80011e1a800b9
:100b200013e1a8001fe1a80021e1a8000080fa005d
:100b300000000600ff3ffc0002428000020050005f
:100b40000002020000000000020040000000fc0063
:100b500000000600ff3ffc006940800070408000fc
:100b6000814080000002020000000000008044007c
:100b700060408800794080008140800000020200cf
:100b80000000000000805400704088000000fc005d
:040b9000000006005b
:020000040000fa
:0200000401f009
:04000000f7ff000006
:020000040000fa
:0200000401f009
:04000400c0ff000039
:020000040000fa
:0200000401f009
:04000800dfff000016
:020000040000fa
:1000080002060000020600000206000002060000c8
:1000180002060000020600000206000002060000b8
:10002800020600000206000002060000ba040000f2
:100038000206000002060000020600000206000098
:100048000206000002060000020600000206000088
:100058000206000002060000020600000206000078
:100068000206000002060000020600000206000068
:100078000206000002060000020600000206000058
:100088000206000002060000020600000206000048
:100098000206000002060000020600000206000038
:1000a8000206000002060000020600000206000028
:1000b8000206000002060000020600000206000018
:1000c8000206000002060000020600000206000008
:1000d80010050000020600000206000002060000eb
:1000e80002060000020600000206000002060000e8
:0800f8000206000002060000f0
:020000040000fa
:1001080002060000020600000206000002060000c7
:1001180002060000020600000206000002060000b7
:10012800020600000206000002060000ba040000f1
:100138000206000002060000020600000206000097
:100148000206000002060000020600000206000087
:100158000206000002060000020600000206000077
:100168000206000002060000020600000206000067
:100178000206000002060000020600000206000057
:100188000206000002060000020600000206000047
:100198000206000002060000020600000206000037
:1001a8000206000002060000020600000206000027
:1001b8000206000002060000020600000206000017
:1001c8000206000002060000020600000206000007
:1001d80010050000020600000206000002060000ea
:1001e80002060000020600000206000002060000e7
:0801f8000206000002060000ef
:020000040000fa
:100b940000080000480000000200000000000000ff
:100ba4000000000000000000000000000000b80089
:100bb4007e0000005c05e80023030000e823030036
:100bc400001200000300000000000000000000000c
:100bd400000000001b0003000000000000000000f3
:100be400000000000000fc001c5078004015c0000c
:100bf400ea000000110100000000000000000000f5
:020000040000fa
:080c04000040da000000fe00d0
:00000001FF
